:100000000C947A190C94AB190C94AB190C94AB1991
:100010000C94AB190C94AB190C94AB190C94AB1950
:100020000C94AB190C94AB190C94AB190C94AB1940
:100030000C94AB190C9444BD0C94AB190C94AB19F3
:100040000C94AB190C9421270C94AB190C94AB199C
:100050000C94AB190C94AB190C94CC250C94FABCF1
:100060000C94AB190C94E76F0C94395C0C94AB199D
:100070000C94AB190C94AB190C94AB190C94AB19F0
:100080000C94AB190C94AB190C94AB190C94AB19E0
:100090000C94AB190C94AB190C94AB190C94AB19D0
:1000A0000C94AB190C94AB190C94AB190C94AB19C0
:1000B0000C94AB190C94AB190C94AB190C94AB19B0
:1000C0000C94AB190C94AB190C94AB190C94AB19A0
:1000D0000C94AB190C94AB190C9433380C94FD3779
:1000E0000C94AB190C94B1700C94F3960C943D7075
:1000F0000C94B0B50C9487B20C94E6960C9434BC76
:100100000C94FFBB0C9424B80C94BEB20C944AB26D
:100110000C942FB90C9446B50C946DB20C94B6BCEB
:100120000C943BBB0C94F7960C946FB90C941DB5D2
:100130000C9475B20C94EA960C94D5C60C9411BC30
:100140000C946EB50C94C1BC0C94C8B20C9463B200
:100150000C94E7B40C941FBC0C940F970C94059767
:100160000C94A2BB0C94EFB70C94D2B20C94AAB22C
:100170000C9459B20C942CB50C9407B90C9464BB34
:100180000C94ED960C9418970C940ABC0C94DCB269
:100190000C94D8960C94E1B90C940B970C94199785
:1001A0000C9437B50C9464B90C9473700C943BBCEC
:1001B0000C949EB90C94C3700C945BB70C9426BC41
:1001C0000C9442B20C944FB20C9418BC0C947DB2B7
:1001D0000C9402B50C9401970C941D970C94A97083
:1001E0000C949BB20C94E2960C942DBC0C94FD964E
:1001F0000C942AB60C94F3B50C94CB700C949970B3
:100200000C94AD700C948AB80C94BFB80C948270A6
:100210000C9413970C94B4B20C94B8700C948DBBDE
:100220000C949AB70C942BB80C949D700C94DE9699
:100230000C9492700C94A5700C94D2CE0C9491B244
:100240000C94A1704E414E494E495459494E46CDE9
:10025000CCCC3D0AD7233C17B7D13877CC2B32957D
:1002600095E6241FB14F0A000020410000C842005B
:10027000401C4620BCBE4CCA1B0E5AAEC59D7443E2
:100280004F4D4D554E49434154494F4E00445259EC
:1002900052554E004552524F5253004543484F006D
:1002A000554E4B4E4F574E205354415445004743F3
:1002B0004F44455F494E464F004C43445F504155C3
:1002C00053455F524553554D450046494C414D45B8
:1002D0004E545F52554E4F55545F434F4E54494E06
:1002E00055450046494C414D454E545F52554E4F81
:1002F0005554004D38373620526573706F6E6469FF
:100300006E672050524F4D50545F004572726F72AD
:100310002077726974696E6720746F20454550526A
:100320004F4D210A0053544F505045442E20005049
:1003300072696E7465722073746F70706564206486
:10034000756520746F206572726F72732E20466916
:100350007820746865206572726F7220616E642007
:10036000757365204D39393920746F207265737447
:100370006172742E202854656D7065726174757297
:10038000652069732072657365742E20536574202F
:100390006974206166746572207265737461727429
:1003A000696E67290A004E6F20436865636B737539
:1003B0006D2077697468206C696E65206E756D625A
:1003C00065722C204C617374204C696E653A200074
:1003D000636865636B73756D206D69736D617463BC
:1003E000682C204C617374204C696E653A20004C77
:1003F000696E65204E756D626572206973206E6F3F
:1004000074204C617374204C696E65204E756D626A
:1004100065722B312C204C617374204C696E653AE7
:1004200020004D31313000534420726561642065F5
:1004300072726F720A002121204B494C4C2063617B
:100440007573656420627920746F6F206D756368C1
:1004500020696E6163746976652074696D65202D0D
:100460002063757272656E7420636F6D6D616E646A
:100470003A2000627573793A207061757365642063
:10048000666F7220696E7075740A00627573793ACE
:100490002070617573656420666F72207573657274
:1004A0000A00627573793A2070726F6365737369BD
:1004B0006E670A005446542053657269616C20448B
:1004C000656275673A204F6E205344204361726421
:1004D000204572726F72202E2E2E204A32310A0071
:1004E0005446542053657269616C20446562756797
:1004F0003A204F6E5344436172644572726F7220AA
:100500006576656E74207472696767657265642EBE
:100510002E2E0A004D6564696120496E7365727400
:1005200065640070617573650054465420536572AC
:1005300069616C2044656275673A2046696C616D3B
:10054000656E7452756E6F75742074726967676535
:100550007265642E2E2E0A004D36303000206669FA
:100560006C616D656E745F72756E6F757420006678
:10057000696C616D656E745F72756E6F7574205411
:100580000046696C616D656E7452756E6F7574208E
:1005900054005446542053657269616C204465626E
:1005A00075673A204B696C6C20636F6D6D616E648A
:1005B0002E2E2E204A31310A004A313100706F77D9
:1005C00065726F6666005072696E7465722068614C
:1005D0006C7465642E206B696C6C28292063616CD7
:1005E0006C6564210A006563686F3A004572726F3A
:1005F000723A000A4D6561737572656420706F69A7
:100600006E74733A0A00357835206D6573682E2054
:100610005A206F66667365743A20002F2F616374E9
:10062000696F6E3A00626567696E00627574746F17
:100630006E00656E640070726F6D70745F00736839
:100640006F770044697361626C6552756E6F757483
:100650000050757267654D6F7265007061757365E6
:10066000640053656E64204D31303820746F207201
:100670006573756D650A0052656865617420446F25
:100680006E6500526568656174696E672E2E2E0076
:1006900052656865617400486561746572205469CB
:1006A0006D656F75740053656E64204D3130382070
:1006B000746F2068656174206E6F7A7A6C650A00C9
:1006C000486F74656E6420746F6F20636F6C640A8A
:1006D00000726573756D6564004C6F6164204669D6
:1006E0006C616D656E74205400496E736572742080
:1006F00066696C616D656E7420616E642073656EF1
:1007000064204D3130380A00526573756D696E672B
:10071000004F46460A00466164652048656967687F
:100720007420004661696C656420746F20656E6199
:10073000626C6520426564204C6576656C696E6705
:100740000A004D65736820426564204C6576656CCF
:1007500020646174613A0A00496E76616C696420B4
:100760006D6573682E0A00206E6F7420656E746567
:100770007265642E0A00206F6620004D424C2047AF
:10078000323920706F696E7420004A206F757420B2
:100790006F662072616E67652028302D0049206FDA
:1007A0007574206F662072616E67652028302D0099
:1007B0004D6573682070726F62696E6720646F6E3A
:1007C000652E0A005374617274206D657368207021
:1007D000726F62696E6720776974682022473239C8
:1007E000205331222066697273742E0A0047323812
:1007F0000A47323920533200686173206E6F2064DB
:100800006174612E0A004D65736820426564204C56
:100810006576656C696E67200053206F7574206F74
:10082000662072616E67652028302D35292E0A00FA
:1008300020496E76616C69642065787472756465B0
:10084000722000536C6565702E2E2E004D65736806
:1008500020706F696E74206F7574206F66207261EE
:100860006E67650A004D302053746F70004D312063
:1008700053746F7000436F6E74696E756500436CDE
:1008800069636B20746F20526573756D652E2E2E13
:10089000004E6F204D6F76652E00456E64206669B0
:1008A0006C65206C6973740A00426567696E206626
:1008B000696C65206C6973740A00526573756D69A3
:1008C0006E6720534400286E6F2066696C652900AE
:1008D00043757272656E742066696C653A200053C8
:1008E00044207072696E74696E6720627974652045
:1008F000004E6F74205344207072696E74696E6785
:100900000A0044656C6574696F6E206661696C6588
:10091000642C2046696C653A200046696C65206449
:10092000656C657465643A005072696E7420746910
:100930006D653A2000496E76616C69642050696E7D
:10094000204D6F64650A000A53746174733A20463F
:10095000696C616D656E7420757365643A20002C56
:10096000204C6F6E67657374206A6F623A20005482
:100970006F74616C2074696D653A20005374617402
:10098000733A20002C204661696C65643A20002C83
:100990002046696E69736865643A20005072696E1A
:1009A00074733A200044454255473A004D31313383
:1009B000205300416E796375626963206933204D6D
:1009C000656761204F46462E004348414D424552DF
:1009D0005F54454D504552415455524500424142A5
:1009E000595354455050494E470041524353004DCE
:1009F0004F54494F4E5F4D4F444553005448455264
:100A00004D414C5F50524F54454354494F4E004C5A
:100A10004F4E475F46494C454E414D450041555468
:100A20004F5245504F52545F53445F5354415455B5
:100A300053005344434152440050524F4D50545F71
:100A4000535550504F525400454D455247454E4323
:100A5000595F50415253455200434153455F4C4901
:100A60004748545F4252494748544E4553530054F7
:100A70004F47474C455F4C494748545300534F46F6
:100A800054574152455F504F574552004255494CCB
:100A9000445F50455243454E54004C4556454C49E1
:100AA0004E475F44415441005A5F50524F42450007
:100AB0004155544F4C4556454C005052494E545F99
:100AC0004A4F420050524F475245535300415554EC
:100AD0004F5245504F52545F54454D5000564F4C65
:100AE000554D455452494300454550524F4D0042E3
:100AF000494E4152595F46494C455F5452414E530D
:100B00004645520053455249414C5F584F4E5F583D
:100B10004F4646004649524D574152455F4E414D62
:100B2000453A4D61726C696E20322E302E362E3170
:100B300020284E6F7620323320323032312031304F
:100B40003A30333A30342920534F555243455F43AE
:100B50004F44455F55524C3A68747470733A2F2F66
:100B60006769746875622E636F6D2F4D61726C6971
:100B70006E4669726D776172652F4D61726C696E38
:100B80002050524F544F434F4C5F56455253494F9C
:100B90004E3A312E312E32204D414348494E455F69
:100BA000545950453A416E796375626963206933DF
:100BB000204D6567612045585452554445525F4366
:100BC0004F554E543A3120555549443A6365646552
:100BD000326132662D343161322D343734382D395B
:100BE0006231322D633535633632663336376666A9
:100BF0000A002F2F2000205200416363656C65724C
:100C00006174696F6E3A2050003F4A206F757420FE
:100C10006F662072616E67652028302E3031207437
:100C20006F20302E33290A0020204D61783A2000B1
:100C300020204D696E3A2000536F667420656E6403
:100C400073746F70733A200046523A0020466C6FFE
:100C5000773A200050726F74656374656420506940
:100C60006E0A004D424C2041646A757374205A002C
:100C700020643A0020693A0020703A00496E76619B
:100C80006C69642065787472756465720A006469C1
:100C9000730043290A0061626C656420286D696EE7
:100CA0002074656D702000436F6C642065787472E9
:100CB0007564657320617265200046696C616D65BD
:100CC0006E742072756E6F757420004D3432312051
:100CD000696E636F727265637420706172616D65B5
:100CE0007465722075736167650A004F6666736587
:100CF0007473204170706C696564004572723A20AB
:100D0000546F6F206661722100546F6F20666172AC
:100D10002066726F6D207265666572656E63652010
:100D2000706F696E740A00454550524F4D204F4B0D
:100D30000A00205A323A004475616C20456E647393
:100D4000746F702041646A7573746D656E742028C9
:100D50006D6D293A20002028302D31302900207671
:100D6000616C7565206F7574206F662072616E67A7
:100D70006500416476616E6365204B3D004D3834FB
:100D800000446F6E65207072696E74696E672066CC
:100D9000696C650A004D3737004D3331004361708F
:100DA0003A00656E7175657565696E672022006F22
:100DB0006B00526573656E643A20002569792025C1
:100DC0006964202569682025696D202569730042C2
:100DD000656420436F6F6C696E672E2E2E0042652E
:100DE000642048656174696E672E2E2E0023646549
:100DF00066696E652044454641554C545F004B641E
:100E000020004B6920004B70200050494420417560
:100E1000746F74756E652066696E697368656421A8
:100E20002050757420746865206C617374204B7059
:100E30002C204B6920616E64204B6420636F6E73BD
:100E400074616E74732066726F6D2062656C6F776B
:100E500020696E746F20436F6E6669677572617486
:100E6000696F6E2E680A00504944204175746F7492
:100E7000756E65206661696C6564212074696D65B5
:100E80006F75740A00504944204175746F74756E13
:100E900065206661696C6564212054656D706572BA
:100EA000617475726520746F6F20686967680A00E5
:100EB000204B643A2000204B693A2000204B703AC6
:100EC00020000A20436C61737369632050494420F9
:100ED0000A000A204E6F206F76657273686F6F7418
:100EE0000A002054753A2000204B753A2000206DEE
:100EF00061783A2000206D696E3A200020643A2023
:100F00000020626961733A200050494420417574A1
:100F10006F74756E652073746172740A0050494471
:100F2000204175746F74756E650050494420417599
:100F3000746F74756E65206661696C65642120420A
:100F40006164206578747275646572206E756D6277
:100F500065720A006F70656E0054524947474552EA
:100F600045440066696C616D656E74007A325F6D30
:100F7000696E007A5F6D696E00795F6D696E0078E9
:100F80005F6D696E005265706F7274696E6720657F
:100F90006E6473746F70207374617475730A0048A3
:100FA0006F6D696E67204661696C65640057617298
:100FB0006E696E673A20486F6D696E672042756D85
:100FC000702044697669736F72203C20310A0020DA
:100FD000456E6473746F703F0A0042616420005470
:100FE00046542053657269616C2044656275673AA6
:100FF000205374617274696E672053442050726983
:101000006E742E2E2E204A30340A0054465420533B
:10101000657269616C2044656275673A20534420AB
:101020005072696E7420436F6D706C657465642EC8
:101030002E2E204A31340A0053657474696E67732A
:101040002053746F726564002062797465733B206D
:10105000637263200053657474696E677320537400
:101060006F726564202800454550524F4D206461E1
:10107000746173697A65206572726F722E0A00203E
:1010800073746F7265642073657474696E6773201E
:101090007265747269657665642028002028636132
:1010A0006C63756C6174656429210A0020213D2000
:1010B00000454550524F4D20435243206D69736D9A
:1010C00061746368202D202873746F726564292011
:1010D00000496E6465783A2000204D61726C696E3B
:1010E0003D563831290A00454550524F4D2076650E
:1010F0007273696F6E206D69736D61746368202807
:10110000454550524F4D3D00454550524F4D2049A9
:101110006E697469616C697A65640A004861726419
:10112000636F6465642044656661756C7420536503
:101130007474696E6773204C6F616465640A003B68
:10114000200020204D363033200020204D34313215
:1011500020530046696C616D656E742072756E6F08
:1011600075742073656E736F723A0020550046697E
:101170006C616D656E74206C6F61642F756E6C6F41
:101180006164206C656E677468733A0020204D3985
:101190003030204B004C696E65617220416476618D
:1011A0006E63653A0020440020204D3330342050D7
:1011B0000020204D333031205000504944207365C9
:1011C0007474696E67733A0020204D3636360045D8
:1011D0006E6473746F702061646A7573746D656E8C
:1011E000743A002020473239205334205A00204AD4
:1011F00000202047323920533320490020204D342D
:1012000032302053004D65736820426564204C6580
:1012100076656C696E673A0020204D323036205872
:1012200000486F6D65206F66667365743A00202014
:101230004D323035204200416476616E6365643A18
:1012400020423C6D696E5F7365676D656E745F7497
:10125000696D655F75733E20533C6D696E5F6665B1
:101260006564726174653E20543C6D696E5F747292
:101270006176656C5F66656564726174653E204A7F
:101280003C6A756E635F6465763E0020204D3230A7
:1012900034205000416363656C65726174696F6EE0
:1012A0002028756E6974732F7332293A20503C7070
:1012B00072696E745F616363656C3E20523C726557
:1012C00074726163745F616363656C3E20543C7447
:1012D000726176656C5F616363656C3E0020204DD2
:1012E0003230312058004D6178696D756D20416351
:1012F00063656C65726174696F6E2028756E6974C0
:10130000732F7332293A0020204D32303320580099
:101310004D6178696D756D2066656564726174658F
:10132000732028756E6974732F73293A005374659E
:1013300070732070657220756E69743A0020204DBC
:101340003230302053002044697361626C65640A56
:101350000046696C616D656E742073657474696EA6
:1013600067733A0020286D6D290020204732312014
:101370002020203B20556E69747320696E206D6DAE
:101380000020436F756E7420583A00426564004532
:101390003100626564002C2073797374656D20736D
:1013A000746F7070656421204865617465725F496F
:1013B000443A200048656174696E67204661696C33
:1013C00065640048656174696E67206661696C6573
:1013D00064004D3131322053687574646F776E004C
:1013E000544845524D414C2052554E4157415900A9
:1013F000546865726D616C2052756E617761790019
:101400004572723A204D415854454D50004D415857
:1014100054454D5020747269676765726564004574
:1014200072723A204D494E54454D50004D494E542C
:10143000454D502074726967676572656400202F9E
:10144000002042403A0020403A0020573A007C3CBD
:101450003E5E2B3D3F2F5B5D3B2C2A225C003637E6
:1014600026032B3C3D382A2E303E1224221E1A1C05
:10147000180A2C430809072C07084400019B02B4F2
:101480000294028D027F02000000C00000000000F4
:1014900000000000004842000048420000A0400256
:1014A00002040000A0400000A04000000040000036
:1014B0005E4300005C4300005243FFFFFF00005CFE
:1014C0004300005C43000052430000FA430000FA6E
:1014D0004300000041000070420000A0420000A054
:1014E000420000C8430000C642D0070000D00700F9
:1014F000003C0000001027000024F4D43050C38EBC
:1015000020C2A24017828B7011127A910D816CD982
:101510000AA861E108C7586607615143061E4B5D82
:1015200005C145A7041A411104093D9803713931D9
:10153000034036DB0265339102D4305402802E1D05
:1015400002632CEE01752AC501B028A00110278185
:10155000018F2564012B244B01E0223401AC211FB3
:10156000018D200D01801FFC00841EED00971DDF02
:1015700000B81CD200E61BC600201BBC00641AB2D7
:1015800000B219A8000A19A0006A189900D1179191
:101590000040178B00B516840031167E00B3157914
:1015A000003A157300C7146F0058146A00EE1366F2
:1015B000008813630025135E00C7125B006C12578E
:1015C0000015125400C111510070114F0021114B30
:1015D00000D61049008D104700461044000210420A
:1015E00000C00F4000800F3E00420F3C00060F3B42
:1015F00000CB0E3800930E37005C0E3500270E34FA
:1016000000F30D3200C10D3100900D3000600D2E41
:1016100000320D2D00050D2C00D90C2B00AE0C292D
:1016200000850C29005C0C2700350C27000E0C26C9
:1016300000E80B2400C40B2400A00B23007D0B2327
:10164000005A0B2100390B2100180B2000F80A1F4B
:1016500000D90A1E00BB0A1E009D0A1D00800A1D3B
:1016600000630A1C00470A1B002C0A1B00110A1AFF
:1016700000F7091A00DD091900C4091900AB09199E
:1016800000920917007B091800630917004C09161E
:101690000036091600200916000A091500F508157C
:1016A00000E0081400CC081400B8081400A40814C2
:1016B00000900813007D0812006B081300580812F0
:1016C0000046081200340811002308110012081106
:1016D0000001081100F0071000E0071000D007100B
:1016E00000C0071000B0070F00A107100091070EFF
:1016F0000083070F0074070F0065070E0057070EE1
:101700000049070E003B070D002E070E0020070DB5
:101710000013070D0006070D00F9060C00ED060D7D
:1017200000E0060C00D4060C00C8060C00BC060C39
:1017300000B0060C00A4060B0099060C008D060BE9
:101740000082060B0077060B006C060B0061060A90
:101750000057060B004C060A0042060A0038060A2B
:10176000002E060A0024060A001A060A00100609BE
:101770000007060A00FD050900F4050900EB05094C
:1017800000E2050900D9050900D0050900C70509CF
:1017900000BE050900B5050800AD050800A505094E
:1017A000009C050800940508008C050800840508C5
:1017B000007C050800740508006C05070065050835
:1017C000005D050700560508004E050700470507A0
:1017D000004005080038050700310507002A050705
:1017E00000230507001C050600160507000F050766
:1017F000000805060002050700FB040600F50407C3
:1018000000EE040600E8040600E2040700DB04061C
:1018100000D5040600CF040600C9040600C3040670
:1018200000BD040600B7040600B1040500AC0406C0
:1018300000A6040600A00405009B0406009504050C
:1018400000900406008A0405008504050080040653
:10185000007A04050075040500700405006B04059A
:101860000066040500610405005C040500570405DA
:1018700000520405004D040500480405004304051A
:10188000003E0404003A0405003504050030040459
:10189000002C04050027040400230405001E040492
:1018A000001A04040016040500110404000D0404C9
:1018B00000090405000404040000040400FC0304FF
:1018C00000F8030400F4030400F0030400EC030434
:1018D00000E8030400E4030400E0030400DC030464
:1018E00000D8030400D4030400D0030400CC030494
:1018F00000C8030300C503030024F404D9201BC45B
:101900000C5C0E9804C4095F0265077101F405F9C7
:1019100000FB04B30048048700C103690058035565
:101920000003034500BE023A008402310053022A3C
:10193000002902250004022000E4011C00C801194E
:1019400000AF011700980114008401130071011009
:10195000006101100051010E0043010D0036010B22
:10196000002B010B0020010B00150109000C0109DF
:101970000003010800FB000800F3000800EB00076B
:1019800000E4000600DE000600D8000600D20006D3
:1019900000CC000500C7000500C2000500BD000422
:1019A00000B9000400B5000400B1000400AD00045B
:1019B00000A9000400A5000300A20003009F00048A
:1019C000009B0003009800030095000200930003B1
:1019D00000900003008D0002008B000300880002CD
:1019E000008600020084000300810002007F0002E4
:1019F000007D0002007B00020079000200770001F8
:101A00000076000200740002007200010071000202
:101A1000006F0002006D0001006C0002006A00010E
:101A20000069000200670001006600010065000116
:101A3000006400020062000100610001006000011A
:101A4000005F0002005D0001005C0001005B00011E
:101A5000005A000100590001005800010057000120
:101A60000056000100550001005400010053000021
:101A7000005300010052000100510001005000011C
:101A8000004F0001004E0000004E0001004D00011B
:101A9000004C0001004B0000004B0001004A000117
:101AA0000049000100480000004800010047000113
:101AB000004600000046000100450000004500010E
:101AC0000044000100430000004300010042000008
:101AD00000420001004100000041000100400001FF
:101AE000003F0000003F0001003E0000003E0001FA
:101AF000003D0000003D0001003C0000003C0000F3
:101B0000003C0001003B0000003B0001003A0000E7
:101B1000003A0001003900000039000100380000DF
:101B200000380000003800010037000000370001D5
:101B300000360000003600000036000100350000CD
:101B400000350000003500010034000000340000C2
:101B500000340001003300000033000000330001B6
:101B600000320000003200000032000100310000AD
:101B700000310000003100010030000000300000A2
:101B800000300001002F0000002F0000002F000097
:101B9000002F0001002E0000002E0000002E00018A
:101BA000002D0000002D0000002D0000002D000180
:101BB000002C0000002C0000002C0000002C000174
:101BC000002B0000002B0000002B0000002B000168
:101BD000002A0000002A0000002A0000002A00015C
:101BE0000029000000290000002900000029000051
:101BF0000029000100280000002800000028000043
:101C00000028000000280001002700000027000035
:101C10000027000000270000002700010026000028
:101C2000002600000026000000260000002600011B
:101C30000025000000250000002500000025000010
:101C40000025000000250001002400000024000001
:101C500000240000002400000024000100230000F4
:101C600000230000002300000023000000230000E8
:101C700000230000002300010022000000220000D9
:101C800000220000002200000022000000220001CB
:101C900000210000002100000021000000210000C0
:101CA00000210000002100000021000100200000B0
:101CB00000200000002000000020000000200000A4
:101CC000002000000020000000200001001F000094
:101CD000001F0000001F0000001F0000001F000088
:101CE000001F0000001F0001001E0000001E000079
:101CF000001E0000001E000000C23100001C260073
:101D000000F4190000D80F0000EB080000C0040028
:101D100000750200004001000070012C01900127B5
:101D200001B0012201C0011D01F0011801100213D0
:101D30000130020E016002090190020401C002FF9D
:101D4000000003FA004003F5008003F000D003EB2D
:101D5000002004E6007004E100E004DC004005D748
:101D600000C005D2004006CD00D006C8008007C3E1
:101D7000003008BE00F008B900C009B400B00AAFD6
:101D800000B00BAA00D00CA500000EA000500F9BC5
:101D900000C01096005012910000148C00C01587EE
:101DA00000B0178200B0197D00D01B7800001E73B0
:101DB0000040206E0090226900F024640040275FFC
:101DC0000090295A00E02B5500102E500020304B77
:101DD0000010324600E033410090353C00103737A8
:101DE0000070383200A0392D00B03A2800A03B2303
:101DF00000603C1E00103D1900903D1400103E0F85
:101E000000703E0A00C03E0500003F0000403FFB5E
:101E1000FF803FF6FFC03FF1FF0009121B242D3663
:101E20003F48415A536C657E7719100B023D342FA1
:101E3000265158434A757C676E323B2029161F0491
:101E40000D7A7368615E574C452B2239300F061DA1
:101E500014636A7178474E555C646D767F404952D1
:101E60005B2C253E3708011A137D746F6659504B61
:101E700042353C272E1118030A565F444D727B6091
:101E8000691E170C053A3328214F465D546B627961
:101E900070070E151C232A31384148535A656C7758
:101EA0007E09001B122D243F3658514A437C756E23
:101EB000671019020B343D262F737A6168575E450F
:101EC0004C3B3229201F160D046A6378714E475C23
:101ED00055222B3039060F141D252C373E010813CF
:101EE0001A6D647F7649405B523C352E2718110AE3
:101EF00003747D666F5059424B171E050C333A210F
:101F0000285F564D447B7269600E071C152A2338E2
:101F100031464F545D626B7079002053697A653A9F
:101F200020005265686561742066696E6973686532
:101F3000642E004C6F61642046696C616D656E743F
:101F4000004E6F7A7A6C65205061726B6564002078
:101F5000746F6F206C6F6E6720657874727573692B
:101F60006F6E2070726576656E7465640A0020631A
:101F70006F6C6420657874727573696F6E2070720F
:101F80006576656E7465640A004A303400473238FD
:101F9000004A3231004A3134005072696E74205068
:101FA00061757365640043616E6E6F74206F706558
:101FB0006E207375626469722000534420496E6913
:101FC00074204661696C0053442063617264206F21
:101FD0006B0A006F70656E526F6F74206661696C7A
:101FE00065640A00766F6C756D652E696E69742084
:101FF0006661696C65640A004E6F2053442063611A
:1020000072640A004D32332025730046696C6520E6
:1020100073656C65637465640A0046696C65206F5E
:1020200070656E65643A2000454E44205355425217
:102030004F5554494E450A002220706F73002220EC
:10204000706172656E743A2200535542524F555476
:10205000494E452043414C4C207461726765743A87
:10206000220053756263616C6C204F766572666CFA
:102070006F77004578636565646564206D617820DD
:10208000535542524F5554494E452064657074680B
:102090003A310A0057726974696E6720746F20665E
:1020A000696C653A20006F70656E206661696C65C9
:1020B000642C2046696C653A20006672657368007E
:1020C000646F696E67004E6F77200054465420534A
:1020D000657269616C2044656275673A2046696E75
:1020E000697368656420737461727475700A005452
:1020F00046542053657269616C2044656275673A85
:102100002052656164792E2E2E204A31320A004A0F
:102110003132005446542053657269616C20446525
:102120006275673A204D61696E20626F617264204A
:1021300072657365742E2E2E204A31370A004A319B
:1021400037002020506C616E6E6572427566666560
:102150007242797465733A20002046726565204D9D
:10216000656D6F72793A2000436F6D70696C6564BC
:102170003A204E6F7620323320323032310A00203E
:102180004C61737420557064617465643A20323018
:1021900032302D30392D3133207C20417574686FF9
:1021A000723A20284A756D626F3132352052656D62
:1021B00069786520766F6E20426176617269616E22
:1021C0002D4368726973290A00322E302E362E3163
:1021D0000A004D61726C696E0020536F66747761FE
:1021E00072652052657365740A00205761746368D4
:1021F000646F672052657365740A002042726F77BE
:102200006E206F75742052657365740A00204578DE
:102210007465726E616C2052657365740A00506F4C
:1022200077657255700A006175746F25632E6700BB
:102230004732385859004D31303031006572726F75
:10224000722077726974696E6720746F2066696C9A
:10225000650A00446F6E6520736176696E6720665B
:10226000696C652E0A004D323900656E6473746FB7
:102270007073206869743A20004520255300486F28
:102280006D6520257325732573204669727374006C
:102290005446542053657269616C204465627567C9
:1022A0003A2055736572436F6E6669726D205344B0
:1022B0002052656865617420646F6E652E2E2E2035
:1022C0004A31380A005446542053657269616C20C3
:1022D00044656275673A2055736572436F6E66692F
:1022E000726D205344204865617465722074696D75
:1022F000656F75742E2E2E204A31380A00486561AC
:1023000074657254696D656F75740054465420533A
:10231000657269616C2044656275673A2055736522
:1023200072436F6E6669726D2046696C616D656E91
:10233000742069732070757267696E672E2E2E2067
:102340004A31380A004A31380046696C616D656E61
:10235000742050757267696E672E2E2E0054465495
:102360002053657269616C2044656275673A205537
:10237000736572436F6E6669726D20426C6F636B3A
:10238000696E672066696C616D656E742070726F2E
:102390006D70742E2E2E204A32330A004A323300DA
:1023A0005446542053657269616C204465627567B8
:1023B0003A2055736572436F6E6669726D20466987
:1023C0006C616D656E74206973206F75742E2E2E8E
:1023D000204A31380A005446542053657269616CB2
:1023E0002044656275673A2055736572436F6E6667
:1023F00069726D205344207072696E74207061752B
:1024000073656420646F6E652E2E2E204A31380A63
:10241000005446542053657269616C2044656275AE
:10242000673A204F6E55736572436F6E6669726DC1
:102430005265717569726564207472696767657247
:1024400065642E2E2E2000220A00556E6B6E6F776B
:102450006E20636F6D6D616E643A2022002045002E
:10246000204D393220580020453A00205A3A0020A9
:10247000593A0043616E6E6F7420656E7465722008
:102480007375626469723A20004D32310053706591
:102490006369616C204D656E753A20534420696E06
:1024A0007469616C697A650A004D3530300A4D33C4
:1024B000303020503130352053313130380A4D33EF
:1024C00030302050323130205331363631005370A5
:1024D000656369616C204D656E753A205361766560
:1024E00020454550524F4D0A004D3530320A4D338C
:1024F000303020503130352053313636310A4D33AB
:102500003030205032313020533131303800537068
:10251000656369616C204D656E753A204C6F61642E
:102520002046572044656661756C74730A004D330C
:10253000303320452D312053363020433130205563
:10254000310A4D3530300A4D33303020503130357E
:102550002053313636310A4D33303020503231304D
:10256000205331313038005370656369616C204D00
:10257000656E753A204175746F2054756E652048FC
:102580006F74626564205069640A004D31303620F2
:10259000533139300A473420503530300A4D33300A
:1025A00033204530205332303020433130205531F4
:1025B0000A4D3530300A4D3130370A4D3330302036
:1025C000503130352053313636310A4D33303020DA
:1025D00050323130205331313038005370656369E7
:1025E000616C204D656E753A204175746F2054758D
:1025F0006E6520486F74656E64205049440A00532C
:1026000070656369616C204D656E753A204E657822
:1026100074204D65736820506F696E740A004732EC
:1026200039205331005370656369616C204D656ECC
:10263000753A205374617274204D657368204C653F
:1026400076656C696E670A004D3134302053363040
:10265000005370656369616C204D656E753A20505A
:10266000726568656174204265640A004739310A01
:102670004731205A2D302E310A47393000537065CA
:102680006369616C204D656E753A205A20446F77FE
:102690006E20302E310A004739310A4731205A2D39
:1026A000302E30320A473930005370656369616CEF
:1026B000204D656E753A205A20446F776E20302E7B
:1026C00030320A004739310A4731205A2B302E3038
:1026D000320A473930005370656369616C204D657B
:1026E0006E753A205A20557020302E30320A00473D
:1026F00039310A4731205A2B302E310A4739300000
:102700005370656369616C204D656E753A205A207F
:10271000557020302E310A0054465420536572699A
:10272000616C2044656275673A2041626F75742060
:10273000746F207072696E742066696C65202E2E2D
:102740002E200063616E63656C005072696E7420A8
:1027500041626F72746564004469736D69737300DC
:1027600055492041626F7274656400544654205389
:10277000657269616C2044656275673A2053442034
:102780007072696E742073746F702063616C6C6515
:10279000642E2E2E204A31360A004A3136007265E8
:1027A00073756D65005446542053657269616C20E1
:1027B00044656275673A20526573756D6520507285
:1027C000696E7420776974682066696C616D656EE6
:1027D000742073656E736F72207374696C6C2074EF
:1027E0007269707065642E2E2E204A31380A0054AA
:1027F00046542053657269616C2044656275673A7E
:1028000020526573756D65205072696E742077690A
:1028100074682066696C616D656E742073656E7393
:102820006F72207374696C6C207472697070656467
:102830002E2E2E200A005446542053657269616C76
:102840002044656275673A205344207072696E7443
:1028500020726573756D65642E2E2E204A30340A01
:10286000004D323520500A4D323400526573756D7B
:1028700065005549205061757365004739310A4735
:102880003120452D322046313830300A473930006A
:102890005446542053657269616C204465627567C3
:1028A0003A205344207072696E74207061757365AC
:1028B00020737461727465642E2E2E204A30350A9E
:1028C000004A3035002F2E2E003C5370656369613D
:1028D0006C204D656E753E003C7370656369616C7C
:1028E0006D6E753E003C457869743E003C53442053
:1028F000696E7469616C697A653E003C313253449B
:10290000696E7469616C697A653E003C53617665F5
:1029100020454550524F4D3E003C313153764545A0
:1029200050524F4D3E003C4C6F616420465720444E
:10293000656661756C74733E003C31304657446582
:10294000666C74733E003C4175746F2054756E65FF
:1029500020486F74626564205049443E003C303921
:1029600048744265645049443E003C4175746F2090
:1029700054756E6520486F74656E64205049443EFE
:10298000003C30384874456E645049443E003C4E2B
:10299000657874204D65736820506F696E743E00D1
:1029A0003C30374D6573684E506E743E003C537436
:1029B000617274204D657368204C6576656C696E34
:1029C000673E003C3036534D6573684C766C3E0074
:1029D0003C50726568656174206265643E003C30FD
:1029E0003550726568744265643E003C5A20446FFD
:1029F000776E20302E313E003C30345A446E302EFB
:102A0000313E003C5A20446F776E20302E30323EEB
:102A1000003C30335A446E302E30323E003C5A2057
:102A2000557020302E30323E003C30325A557030D6
:102A30002E30323E003C5A20557020302E313E0060
:102A40003C30315A5570302E313E00454E44003CEA
:102A50005370656369616C5F4D656E753E005446E9
:102A6000542053657269616C2044656275673A2031
:102A70004E6F2053442043617264206D6F756E74F5
:102A8000656420746F2072656E6465722043757290
:102A900072656E742046696C65204C6973742E2EC5
:102AA0002E204A30320A004A303200464E20003290
:102AB0002E302E362E31004A333320005446542017
:102AC00053657269616C2044656275673A204E6F88
:102AD0002053442043617264206D6F756E74656489
:102AE00020746F20726566726573682053442041BC
:102AF00032362E2E2E204A30320A005446542053AD
:102B0000657269616C2044656275673A20436F6F36
:102B10006C696E6720646F776E2E2E2E204A3132DC
:102B20000A004F4B004731205A31300054465420A0
:102B300053657269616C2044656275673A20413261
:102B400032204D6F76652066696E616C207265710A
:102B50007565737420776974682067636F64652E88
:102B60002E2E20004739310A25730A473930004795
:102B700031204525694635303000473120452D301C
:102B80002E314625690047312045302E31462569D2
:102B9000004731205A2569462569004731205A2DC2
:102BA000302E31462569004731205A302E314625D6
:102BB0006900473120592569462569004731205968
:102BC0002D302E314625690047312059302E3146AF
:102BD000256900473120582569462569004731207D
:102BE000582D302E314625690047312058302E317E
:102BF00046256900473238205A00473238205900AC
:102C00004732382058004132305620005446542074
:102C100053657269616C2044656275673A20466944
:102C20006C652053656C65637465642E2E2E204A96
:102C3000323020004A3230005446542053657269C5
:102C4000616C2044656275673A20436C656172204F
:102C500066696C652073656C656374696F6E2E2E92
:102C60002E204A3231200A005072696E746572203B
:102C700068616C7465642E206B696C6C2829206314
:102C8000616C6C65642100203939393A3939390071
:102C9000204D002048200041375620004136562064
:102CA0002D2D2D005446542053657269616C2044CB
:102CB000656275673A204E6F205344204361726409
:102CC000206D6F756E74656420746F207265747505
:102CD000726E207072696E74696E672073746174AD
:102CE00075732E2E2E204A30320A004136562000AF
:102CF000205A3A200020593A200041355620583AAF
:102D000020004134562000413356200041325620E5
:102D10000041315620004130562000544654205383
:102D2000657269616C20436F6D6D616E643A20005D
:102D30005446542053657269616C2044656275671E
:102D40003A205344205072696E742053746F70702F
:102D500065642E2E2E204A31340A004D38340A4D37
:102D60003237005446542053657269616C204465C3
:102D70006275673A2046696E69736865642073748A
:102D80006F7070696E67207072696E742C20726546
:102D90006C656173696E67206D6F746F7273202E3E
:102DA0002E2E0A00416E79637562696320693320B3
:102DB0004D6567612052656164792E005072696EBD
:102DC00074696E672E2E2E006E6F7469666963617A
:102DD00074696F6E20005446542053657269616CAB
:102DE0002044656275673A204F6E534443617264B4
:102DF00053746174654368616E6765206576656EBE
:102E000074207472696767657265642E2E2E005493
:102E100046542053657269616C2044656275673A57
:102E2000204E6F6E20626C6F636B696E67206669FF
:102E30006C616D656E742072756E6F75742E2E2EBA
:102E4000204A31350A004A31350054465420536532
:102E50007269616C2044656275673A20426C6F63E9
:102E60006B696E672066696C616D656E7420707247
:102E70006F6D70742E2E2E204A32330A000A4D33A5
:102E8000303020503230302053313536370A4D3310
:102E9000303020503230302053313137340A4D3306
:102EA000303020503230302053313536370A4D33F0
:102EB000303020503230302053313137340A4D33E6
:102EC0003030205032303030205331353637000228
:102ED0001000C90210012C014001220170011801EB
:102EE000B0010E01F00104015002FA00B002F0003E
:102EF0003003E600D003DC009004D2007005C80067
:102F0000A006BE000008B400B009AA00D00BA000C3
:102F1000600E960060118C00001582002019780068
:102F2000C01D6E00A0226400B0275A00902C5000F3
:102F300000314600E0343C0010383200903A28005E
:102F4000603C1E00A03D1400803E0A00203F0000AF
:102F500000002100240027002A002D00300033004B
:102F600001010000040107010A0100002200250000
:102F700028002B002E003100340002010000050162
:102F800008010B01000020002300260029002C006E
:102F90002F003200000100000301060109010505B0
:102FA0000505070508080808020202020A0A0808BF
:102FB00004040404010101010101010103030303ED
:102FC00003030303040707070C0C0C0C0C0C0C0C7C
:102FD0000202020206060606060606060B0B0B0B8D
:102FE0000B0B0B0B010210202008081020401020B2
:102FF00040800201020108040201010204081020BD
:1030000040808040201008040201800402018040BA
:103010002010080402010804020101020408102023
:103020004080010204081020408000000A0B0209C1
:103030000C0D0E0807030401000000000000000052
:103040000000000000000000000000000000000080
:10305000000000000000121110000000000000003D
:103060000000000000000000000000000000000060
:10307000DB0FC93F45BCDA3F8FB30240FCF027406D
:1030800056946140FE4B9B4084A5D840E0231841F4
:10309000346A5641E859974164DBD5416E2717429F
:1030A000B4B75542CE1A9742C8AED542B5885A43F6
:1030B000D40684BFA65FA7BF7443E0BF10B11AC097
:1030C0001C2C58C0E8F697C0B849D6C04E4E17C160
:1030D00024D355C1802497C1A0B5D5C1121A17C2F7
:1030E00044AE55C2781797C26CACD5C267885AC334
:1030F00000002110422063308440A550C660E77074
:10310000088129914AA16BB18CC1ADD1CEE1EFF11B
:103110003112100273325222B5529442F772D662C3
:10312000399318837BB35AA3BDD39CC3FFF3DEE36B
:103130006224433420040114E664C774A444855413
:103140006AA54BB528850995EEE5CFF5ACC58DD5BB
:103150005336722611163006D776F6669556B44663
:103160005BB77AA719973887DFF7FEE79DD7BCC70B
:10317000C448E5588668A7784008611802282338B3
:10318000CCC9EDD98EE9AFF9488969990AA92BB95B
:10319000F55AD44AB77A966A711A500A333A122A03
:1031A000FDDBDCCBBFFB9EEB799B588B3BBB1AABAB
:1031B000A66C877CE44CC55C222C033C600C411C53
:1031C000AEED8FFDECCDCDDD2AAD0BBD688D499DFB
:1031D000977EB66ED55EF44E133E322E511E700EA3
:1031E0009FFFBEEFDDDFFCCF1BBF3AAF599F788F4B
:1031F0008891A981CAB1EBA10CD12DC14EF16FE12B
:103200008010A100C230E320045025404670676062
:10321000B9839893FBA3DAB33DC31CD37FE35EF37A
:10322000B1029012F322D2323542145277625672B2
:10323000EAB5CBA5A89589856EF54FE52CD50DC5CA
:10324000E234C324A0148104667447642454054402
:10325000DBA7FAB79987B8975FE77EF71DC73CD71A
:10326000D326F2369106B016576676761546345652
:103270004CD96DC90EF92FE9C899E9898AB9ABA96A
:103280004458654806782768C018E1088238A328A2
:103290007DCB5CDB3FEB1EFBF98BD89BBBAB9ABBBA
:1032A000754A545A376A167AF10AD01AB32A923AF2
:1032B0002EFD0FED6CDD4DCDAABD8BADE89DC98D0A
:1032C000267C076C645C454CA23C832CE01CC10C42
:1032D0001FEF3EFF5DCF7CDF9BAFBABFD98FF89F5A
:1032E000176E367E554E745E932EB23ED10EF01E92
:1032F000D5C6D2CE11241FBECFEFD1E2DEBFCDBFE7
:1033000000E00CBF12E0A0E0B2E0E6E3F5EB01E084
:103310000BBF02C007900D92AE3CB107D9F72BE16D
:10332000AEECB2E001C01D92A33DB207E1F719E196
:10333000C9E7D9E100E006C021970109802FFE010D
:103340000E94DFD7C837D10780E00807A9F70E949D
:10335000EEC70C9489DA0C940000CF93DF93C9E197
:10336000DFE120E030E048E452E4609158157091CC
:10337000591580915A1590915B150E9489D987FF44
:1033800017C080E0FE01C49120910B0190E0B0E0F5
:10339000A0E004C0B695A79597958795CA95D2F7F2
:1033A00080FD0EC0207220930901DF91CF91089516
:1033B000FE01949181E001C0880F9A95EAF7E2CF6F
:1033C0002095F0CFCF92DF92EF92FF9280913D0750
:1033D000882309F457C0C0903907D0903A07E0908D
:1033E0003B07F0903C0720E030E0A901C701B6019F
:1033F0000E945BD3882309F445C020E030E040E020
:103400005FE3C701B6010E94C1D39B01AC010E94DA
:10341000C1D32BED3FE049E450E40E94C1D39B01AE
:10342000AC0160E070E080E89FE30E9489D86B0106
:103430007C01C0929F06D092A006E092A106F09275
:10344000A2066091110270911202072E000C880BE7
:10345000990B0E9462D32AE037ED43E25CE30E94BD
:10346000C1D3A70196010E94C1D360935402709307
:1034700055028093560290935702FF90EF90DF9091
:10348000CF900895C12CD12C80E8E82E8FE3F82E40
:10349000D0CF8091AD179091AE17891B8F7019F422
:1034A00090E080E008959091AA17992351F083301D
:1034B00030F48FEF890F19F08093AA17F1CF109293
:1034C000AA178091AE1722E5829FC0011124835272
:1034D000914FFC01208120FDE3CF2091AE172F5F9B
:1034E0002F702093AB173091AE172091AC17321389
:1034F00004C02091AB172093AC1708952F923F92F0
:103500004F925F926F927F928F929F92AF92BF92F3
:10351000CF92DF92EF92FF920F931F93CF93DF939F
:10352000CDB7DEB764970FB6F894DEBF0FBECDBF40
:103530007A8B698BDC018D909D90AD90BC90139738
:1035400014962D913D914D915C9117972D833E835B
:103550004F83588720E030E040E251E4C501B401D8
:103560000E9405D82AE037ED43EA5CE30E94C1D30C
:103570000E94FBD864300CF427C163E0E62E660F8E
:10358000FF08F701EE0FFF1FEE0FFF1FE553F64E8A
:1035900040805180628073801701BFEF2B1A3B0A75
:1035A00020E030E040E251E46D817E818F8198859A
:1035B0000E9405D82AE037ED43EA5CE30E94C1D3BC
:1035C0000E94FBD864300CF403C163E0062F660F41
:1035D000110BF801EE0FFF1FEE0FFF1FE553F64E24
:1035E000208131814281538129833A834B835C83DB
:1035F000A8014F5F5F4F5C8B4B8BA5E0AE9DC00178
:10360000AF9D900D11249A878987FC01E00FF11F6F
:10361000EE0FFF1FEE0FFF1FEB52F94FC080D1805E
:10362000E280F380F101EE0FFF1FEE0FFF1FE55365
:10363000F64EA301920160817181828193810E9483
:1036400005D86B877C878D879E87A3019201C50172
:10365000B4010E9405D82B013C0125E0229DF00118
:10366000239DF00D1124F88BEF87E00FF11FEE0F73
:10367000FF1FEE0FFF1FEB52F94FA701960160816C
:103680007181828193810E9405D82B853C854D856F
:103690005E850E9489D8A30192010E94C1D3A7012F
:1036A00096010E9406D86B017C01E985FA854B8959
:1036B0005C89E40FF51FEE0FFF1FEE0FFF1FEB52AB
:1036C000F94F80809180A280B380EF85F889E40F64
:1036D000F51FEE0FFF1FEE0FFF1FEB52F94FA50175
:1036E000940160817181828193810E9405D82B852C
:1036F0003C854D855E850E9489D8A30192010E9478
:10370000C1D3A50194010E9406D8A70196010E9489
:1037100005D84B015C01EB89FC89EE0FFF1FEE0F12
:10372000FF1FE553F64E29813A814B815C81608110
:103730007181828193810E9405D89B01AC01C501F2
:10374000B4010E9489D84B015C0129813A814B81E7
:103750005C816D817E818F8198850E9405D89B0157
:10376000AC01C501B4010E94C1D3A70196010E941A
:1037700006D8A989BA892D913D914D915C910E94FD
:10378000C1D32091D1063091D2064091D3065091F9
:10379000D4060E9406D864960FB6F894DEBF0FBE1A
:1037A000CDBFDF91CF911F910F91FF90EF90DF90F0
:1037B000CF90BF90AF909F908F907F906F905F90D1
:1037C0004F903F902F90089567FFD8CE60E0D6CEFF
:1037D00067FFFCCE60E0FACE90916F0081E091FD32
:1037E00002C080E0089590916F009D7F90936F00DC
:1037F00008958F929F92AF92BF92CF92DF92EF92F5
:10380000FF92CF93DF93EC01809054149090551465
:10381000A0905614B090571420E030E0A901C501E3
:10382000B4010E945BD3882309F454C0C880D980B6
:10383000EA80FB80A7019601C501B4010E945BD319
:1038400018160CF04CC020914B1430914C14409140
:103850004D1450914E14C701B6010E945BD38823CA
:1038600031F1C0924B14D0924C14E0924D14F0926E
:103870004E1420914F143091501440915114509196
:103880005214688179818A819B810E94C1D39B01F6
:10389000AC0160E070E080E89FE30E9405D860938F
:1038A0000D0270930E0280930F02909310026091AC
:1038B0000D0270910E0280910F0290911002DF9123
:1038C000CF91FF90EF90DF90CF90BF90AF909F90FF
:1038D0008F90089560E070E080E89FE3F0CF60E0B3
:1038E00070E0CB01ECCF0F931F93CF93DF9300D009
:1038F0001F92CDB7DEB78C0108960E94F91B698331
:103900007A838B839C83BE016F5F7F4FC8010E94C7
:103910007E1A9B01AC01F8016085718582859385D3
:103920000E9405D8F80160877187828793870F907E
:103930000F900F900F90DF91CF911F910F910895ED
:10394000CF93DF9324E0829FC0011124EC01C85A79
:10395000DB4EFC01E556F74F8E57994FDC012D9158
:103960003D914D915C9160817181828193810E9432
:1039700006D8688379838A839B83DF91CF910895EA
:103980008091AD179091AE17891B8F7089F480914B
:10399000A90E81110DC08091721790917317892B18
:1039A00039F481E090916414911103C080E008958E
:1039B00081E00895CF93DF93DB01F9019C91913071
:1039C000C1F0943080F094509C938830D1F4808181
:1039D0009181009771F0019791838083480F591F5F
:1039E000EA01188206C08C3539F49C5F9C939430B0
:1039F00041F4DF91CF9108958B3339F781E08C93B7
:103A0000F8CF20813181B9016F5F7F4F718360836F
:103A1000420F531FEA018883808191818F35910580
:103A20006CF7E7CF9091A708E92FF0E0EA55F64E42
:103A300080839F5F903140F49093A7088091A90EF6
:103A40008F5F8093A90E08951092A708F7CF282FB3
:103A500090912F04833021F495FD0FC094FD0FC089
:103A6000892F90E0B0E0A0E004C0B695A7959795A7
:103A700087952A95D2F78170089581E0089580E0B6
:103A800008952FEB280F2A3108F042C0E22FF0E012
:103A900080914B0490914C04A0914D04B0914E0440
:103AA00004C0B695A795979587952A95D2F780FD7E
:103AB00002C081700895EF5CFB4FE081EE2329F195
:103AC0008091011490910214E80FF92FF11D80816B
:103AD00090ED980F9A3030F08E3251F481818053FE
:103AE0008A3098F4F0931C04E0931B0481E008955D
:103AF0008D3211F08B3249F4818190ED980F9A301C
:103B000088F38E3211F48281EACFF0E0E0E0EACF70
:103B100080E00895EF92FF920F931F93CF93DF936E
:103B200005ED16E0C5E07801D5E0F70161917191EE
:103B3000819191917F0120E030E0A9010E945BD347
:103B400081110EC0D15089F7C1500C5E1F4FC111B9
:103B5000EACFDF91CF911F910F91FF90EF900895E1
:103B600081E0F7CF129A08959091310195FD0CC034
:103B70009091300195FF08C080933601809130010B
:103B800080648093300108952091F5022F5F2F7794
:103B90000FB607FC27C09091F602921328C09091AF
:103BA000300195FF1EC09091F6024091F5029413EA
:103BB00006C0909131019F7D9093310112C0E92F91
:103BC000F0E0EB50FD4F32819F5F9F7730933601DD
:103BD0009093F602309130013064309330014917F0
:103BE00041F3D9CF9091F602921301C0FBCFE0913F
:103BF000F502F0E0EB50FD4F82832093F5028091B7
:103C000031018062809331010895CF92DF92EF926B
:103C1000FF920F931F93CF93DF93CDB7DEB7A0979B
:103C20000FB6F894DEBF0FBECDBF611571058105DB
:103C3000910579F100E0C42ED12CF12CE12CA701E3
:103C400096010E944ED711E0100FE1E0F0E0EC0F7A
:103C5000FD1FE00FF11D07FDFA956083B901CA0150
:103C6000012F611571058105910549F7115010F17A
:103C7000E1E0F0E0EC0FFD1FE10FF11D17FDFA95FB
:103C8000908187E39A3008F480E3890F0E94B41D85
:103C9000EDCF80E3A0960FB6F894DEBF0FBECDBF88
:103CA000DF91CF911F910F91FF90EF90DF90CF9018
:103CB0000C94B41DA0960FB6F894DEBF0FBECDBF16
:103CC000DF91CF911F910F91FF90EF90DF90CF90F8
:103CD0000895CF92DF92EF92FF920F931F93CF93AD
:103CE000DF93C3E0D4E100EB1EE0C12CD12C7601C0
:103CF000C39469917991899199910E9460D328899F
:103D000039894A895B890E94C1D30E9402D9F8018E
:103D100061937193819391938F01C616D706E8063C
:103D2000F90610F46B017C01F4E1C331DF0709F7F8
:103D30006FEF7FEFCB01A70196010E944ED7209332
:103D4000C00E3093C10E4093C20E5093C30E23EFAA
:103D500034E045E35FE36091AC0E7091AD0E80916D
:103D6000AE0E9091AF0E0E94C1D32AE136EF45E925
:103D70005EE30E9489D86B017C016091031470910D
:103D8000041480910514909106140E9460D39B0145
:103D9000AC01C701B6010E94C1D30E94C7D960938C
:103DA000C40E7093C50E8093C60E9093C70EDF911C
:103DB000CF911F910F91FF90EF90DF90CF900895DA
:103DC0000F931F93CF93DF9307E114E1C8ECDEE07C
:103DD000F80121913191419151918F0160E070E0A2
:103DE00080E89FE30E9489D8699379938993999396
:103DF000FEE0C83DDF0761F70E94899CDF91CF910B
:103E00001F910F910C94691ECF92DF92EF92FF9257
:103E10000F931F93C12CD12C76018C0129E632E03F
:103E200045E652E061E672E08DE592E00E9421B045
:103E30001F910F91FF90EF90DF90CF9008952F92F8
:103E40003F924F925F926F927F928F929F92AF922A
:103E5000BF92CF92DF92EF92FF920F931F93CF9377
:103E6000DF9300D000D0CDB7DEB70E9414B300912D
:103E7000D3171091D4172091D5173091D61701156B
:103E800011052105310509F00DC32091D917222311
:103E900009F44BC0E091D71721502093D91721E0A6
:103EA0002E0F2093D7173091DA17231302C01092E8
:103EB000D71724E0E29FF0011124E552F84E00816B
:103EC0001181228133810093CF171093D017209353
:103ED000D1173093D217600F711F811D911D609310
:103EE000D3177093D4178093D5179093D6178091DA
:103EF000D1179091D217892BC1F08FB78E83F89488
:103F00002090CF173090D0170091D1171091D21771
:103F10002101712C612C809149028F31F9F08F3F82
:103F200009F497C09E819FBF469A26960FB6F894D3
:103F3000DEBF0FBECDBFDF91CF911F910F91FF90DC
:103F4000EF90DF90CF90BF90AF909F908F907F9039
:103F50006F905F904F903F902F900895EFECFEE2AE
:103F600094919D8397FDDECF61E08FE10E94CEB1F9
:103F70008D81882321F09D81923009F0BDC14801D7
:103F8000B12CA12C60E072E18AE790E0A5019801D4
:103F90000E9470D729833A834B835C8369017A013D
:103FA00021E0C21AD108E108F1088FEFC816D10448
:103FB000E104F10409F00CF46FC160E472E48FE0F5
:103FC00090E0A50198010E9470D769017A0191E003
:103FD000C91AD108E108F1082D81223009F010C179
:103FE0008FEFC816D104E104F10409F00CF4C0C24B
:103FF00060E970ED83E090E0A50198010E9470D720
:1040000069017A0191E0C91AD108E108F10883E059
:104010002FEFC216D104E104F10409F00CF4A1C29F
:1040200068E478EE81E090E0A50198010E9470D7E5
:1040300069017A0181E0C81AD108E108F1089FEF0F
:10404000C916D104E104F10411F00CF0FDC084E0C4
:1040500088C28FE180934902EFECFEE224912D8328
:10406000822F2F3F09F45ECF223009F469C060F43B
:10407000222381F1213009F445C087FD53CF61E04F
:104080008FE10E94CEB177CF9D81943009F49AC020
:1040900008F478C0953089F7109220011092210120
:1040A00080912101886080932101809121018160AC
:1040B00080932101EDEBFFE2E491F0E0EE0FFF1FB2
:1040C000E659F04D85919491E3E0F0E3E491E093BB
:1040D00064064ACF14BC15BC84B5826084BD85B526
:1040E000816085BDEDEBFFE2E491F0E0EE0FFF1F94
:1040F000E659F04D85919491E3E0F0E3E491E0938B
:10410000680632CF10928000109281008091810069
:10411000886080938100809181008160809381001C
:10412000EDEBFFE2E491F0E0EE0FFF1FE659F04DFA
:1041300085919491E3E0F0E3E491E093670614CF76
:104140001092B0001092B1008091B0008260809314
:10415000B0008091B10081608093B100EDEBFFE28F
:10416000E491F0E0EE0FFF1FE659F04D8591949138
:1041700090937C0880937B08E3E0F0E3E491E09384
:104180007D08F2CE109290001092910080919100E3
:10419000886080939100809191008160809391006C
:1041A000EDEBFFE2E491F0E0EE0FFF1FE659F04D7A
:1041B00085919491E3E0F0E3E491E093660623E0D7
:1041C0002D83D2CE1092A0001092A1008091A10068
:1041D00088608093A1008091A10081608093A100FC
:1041E000EDEBFFE2E491F0E0EE0FFF1FE659F04D3A
:1041F00085919491E3E0F0E3E491E0936506B4CE19
:104200008FEFC816D104E104F10409F00CF472C078
:1042100068E478EE81E090E0A50198010E9470D7F3
:1042200069017A0191E0C91AD108E108F1082D81EC
:10423000222309F462C12FEFC216D104E104F10474
:1042400011F00CF063C103CF64E274EF80E090E002
:10425000A50194010E9470D769017A0181E0C81A12
:10426000D108E108F10885E09FEFC916D104E10407
:10427000F10409F008F475C162E17AE780E090E0AA
:10428000A50194010E9470D769017A0181E0C81AE2
:10429000D108E108F1084CC181E02D81211161C1F3
:1042A00095B5987F892B85BD2FEF3FEFA901452854
:1042B0004628472809F048C09D81923009F4E2C0A1
:1042C0000CF0C9C0992309F4CEC0913009F02ACE70
:1042D000D0928900C09288002093750630937606AC
:1042E000409377065093780680916F0082608093A8
:1042F0006F0018CE82E0D1CFB12CA12C60E072E12A
:104300008AE790E0A50198010E9470D769017A01BF
:1043100081E0C81AD108E108F108C114D10491E084
:10432000E906F104F4F491E02D81213059F58091F2
:104330008100887F892B809381002FEF3FEFA901B7
:1043400045284628472821F29801220F331FD10122
:104350000E949AD728EE33E040E050E00E944ED70A
:10436000ABCF68E478EE81E090E0A50198010E946F
:1043700070D769017A0181E0C81AD108E108F10813
:1043800093E0D2CF8D818330F9F480919100887FC2
:10439000892B809391002FEF3FEFA90145284628F4
:1043A000472891F6D0929900C09298002093710608
:1043B0003093720640937306509374068091710097
:1043C000826080937100AECD2D81243001F5809103
:1043D000A100887F892B8093A1002FEF3FEFA901D7
:1043E00045284628472809F0AFCFD092A900C092AF
:1043F000A80020936D0630936E0640936F0650938D
:104400007006809172008260809372008BCD8D81E6
:10441000853009F049CF80912101887F892B8093D5
:1044200021012FEF3FEFA90145284628472809F031
:104430008BCFD0922901C092280120936906309336
:104440006A0640936B0650936C06809173008260FD
:104450008093730067CD8D81843039F20CF4A2CF44
:10446000853039F35FCDC7BC2093790630937A0647
:1044700040937B0650937C0680916E00826080930F
:104480006E0050CDC092B30020937E0830937F0819
:1044900040938008509381088091700082608093DF
:1044A000700040CD601B710B820B930B97FD3DCDCF
:1044B00046981092D3171092D4171092D5171092D5
:1044C000D61733CDC980DA80EB80FC809AE0F59472
:1044D000E794D794C7949A95D1F721E0C21AD108EE
:1044E000E108F10885E0DCCE8FEFC816D104E104C5
:1044F000F10409F038F784E0D3CE83E09FEFC916CA
:10450000D104E104F10409F00CF4CACE62E17AE7C7
:1045100080E090E0A50194010E9470D769017A01C2
:1045200081E0C81AD108E108F1089D819923E1F2E0
:1045300086E02FEFC216D104E104F10491F088F077
:10454000C980DA80EB80FC808AE0F594E794D79408
:10455000C7948A95D1F791E0C91AD108E108F1080A
:1045600087E09091B100987F892B8093B1009CCE19
:1045700082E0F7CFCF92DF92EF92FF920F931F93DB
:10458000CF93DF93CDB7DEB77C01CDB6DEB60E9408
:10459000A8D201962DB73EB7281B390B0FB6F89459
:1045A0003EBF0FBE2DBF0DB71EB70F5F1F4FB70128
:1045B000C8010E94A1D2C8010E9483B00FB6F8942E
:1045C000DEBE0FBECDBEDF91CF911F910F91FF9048
:1045D000EF90DF90CF9008952F923F924F925F928D
:1045E0006F927F928F929F92AF92BF92CF92DF9203
:1045F000EF92FF920F931F93CF93DF93D62FC72F86
:10460000FC0180809180A280B380C501B40120E8C4
:1046100031E541E050E00E944ED7C9016DE671E0FE
:104620000E94B7D76B017C01C501B40120E13EE0D7
:1046300040E050E00E944ED7CA01B90128E130E0C5
:1046400040E050E00E944ED7362E272E062F172F1F
:104650008CE3482E512C612C712CC501B401A301AF
:1046600092010E944ED7B62EA72ECA01B901A3010E
:1046700092010E944ED7CB01C114D10479F1AF92BF
:10468000BF927F936F932F923F92FF92EF92DF92B0
:10469000CF928BEB9DE09F938F93CF93DF930E94FC
:1046A000F2D28DB79EB70E960FB6F8949EBF0FBE8E
:1046B0008DBF8D2F9C2FDF91CF911F910F91FF9078
:1046C000EF90DF90CF90BF90AF909F908F907F90B2
:1046D0006F905F904F903F902F900895E114F104F8
:1046E000C9F0AF92BF927F936F932F923F92FF9248
:1046F000EF928FEB9DE09F938F93CF93DF930E9478
:10470000F2D2EDB7FEB73C960FB6F894FEBF0FBEDF
:10471000EDBFCFCF012BB9F0AF92BF927F936F93D4
:104720002F923F9283EC9DE09F938F93CF93DF93E3
:104730000E94F2D28DB79EB70A960FB6F8949EBF2C
:104740000FBE8DBFB6CF892BA9F0AF92BF927F93DA
:104750006F9387EC9DE09F938F93CF93DF930E949D
:10476000F2D2EDB7FEB738960FB6F894FEBF0FBE83
:10477000EDBF9FCFAF92BF928BEC9DE09F938F9345
:10478000CF93DF930E94F2D20F900F900F900F9073
:104790000F900F908ECF80911B0490911C04009776
:1047A00031F04AE050E070E060E00C9478D160E0D5
:1047B00070E0CB01089580911B0490911C04009738
:1047C00031F04AE050E070E060E00C944AD060E0E4
:1047D00070E0CB0108950E94DB23CB0108950F9375
:1047E0001F93CF9380911B0490911C040097E9F0D4
:1047F000FC018F01C1912C2F2F7D81F0C53411F068
:10480000C536B9F7F801108270E060E00E94ECCE86
:10481000F801C083CF911F910F91089570E060E07F
:10482000CF911F910F910C94ECCE60E070E0CB0122
:10483000F1CF0F931F93CF93DF93FC0123812223AA
:1048400031F080E0DF91CF911F910F9108958B019E
:10485000EC01FB018789803139F582E08B831D8A69
:104860001E8A1F8A188E808D918DB0E0A0E025E011
:10487000880F991FAA1FBB1F2A95D1F7898B9A8B86
:10488000AB8BBC8B1A8F098F81E0898318861986C0
:104890001A861B861C821D821E821F82188A1C8615
:1048A0001D861E861F86CECF803259F683E08B830D
:1048B000428D538D648D758D4D8B5E8B6F8B788F94
:1048C0009E012F5E3F4FC8010E9490C48111DACF34
:1048D000B8CFCF93DF93EC010E94FAC41B82DF9123
:1048E000CF910895CF93DF93EC01462F41706C85F3
:1048F0007D858E859F850E94A8C0882351F0888978
:1049000020E2829FC001112485599A4EDF91CF91F8
:10491000089590E080E0FACFCF93DF93EB01FC01A4
:104920002381211104C080E0DF91CF9108952250AE
:10493000223028F48FE28883198281E0F5CF60E08D
:104940000E947224009779F3DC0160E080E09EE22F
:104950002D91203299F0883031F49E01260F311DBF
:10496000F90190836F5F9E01260F311DAD0141500B
:104970005109FA014081F90140836F5F8F5F8B30ED
:1049800039F7FE01E60FF11D1082D7CF3F924F920B
:104990005F926F927F928F929F92AF92BF92CF92CF
:1049A000DF92EF92FF920F931F93CF93DF93CDB7D8
:1049B000DEB72C970FB6F894DEBF0FBECDBF5C01FB
:1049C000DC0159968D909C90F40181859285A38598
:1049D000B4859C01AD012F5F3F4F4F4F5F4F29873B
:1049E0003A874B875C87D50114964D905D906D900A
:1049F0007C901797411451046104710409F459C063
:104A0000BFEF4B1A5B0A6B0A7B0A312C7301620100
:104A10001D821E821F821886F40181859285A385DE
:104A2000B4852D813E814F815885281739074A0763
:104A30005B0708F056C089859A85AB85BC858C15C7
:104A40009D05AE05BF0550F482E0C82ED12CE12CA7
:104A5000F12C92E0492E512C612C712C9E012F5F7C
:104A60003F4FB701A601C4010E940DC48823C9F1BC
:104A700089819A81AB81BC81892B8A2B8B2B01F197
:104A8000260137019FEF491A590A690A790A2D81CF
:104A90003E814F8158852F5F3F4F4F4F5F4F2D8392
:104AA0003E834F8358873FEFC31AD30AE30AF30AC2
:104AB000B3CF408051806280738033243394A6CF7B
:104AC000C414D504E604F70411F70FEF1FEF2FEF1E
:104AD0003FE0B701A601C4010E947BC3782E81117B
:104AE0001AC0712C872D2C960FB6F894DEBF0FBE1E
:104AF000CDBFDF91CF911F910F91FF90EF90DF908D
:104B0000CF90BF90AF909F908F907F906F905F906D
:104B10004F903F900895F5014481558166817781DA
:104B2000411551056105710539F097018601C401F0
:104B30000E947BC38823A9F2D5011496CD92DD9201
:104B4000ED92FC921797332051F0D701C6010196E0
:104B5000A11DB11DF40180839183A283B383F5016C
:104B600085899689A789B08D892B8A2B8B2B09F093
:104B7000B9CFC58AD68AE78AF08E81818068818321
:104B8000B1CF40E050E0BA010C9449C5FC0123814B
:104B900021110C94692408950F930FB70F9300917E
:104BA0006E000B7F00936E0078940F930BB70F93FA
:104BB0000CB70F921F922F933F934F935F936F9376
:104BC0007F938F939F93AF93BF93EF93FF931124A2
:104BD0000E94C841FF91EF91BF91AF919F918F913A
:104BE0007F916F915F914F913F912F911F900F9007
:104BF0000CBF0F910BBF0F910460F89400936E00EF
:104C00000F910FBF0F911895CF93DF93C0913A1575
:104C1000D0913B15209729F1609136157091371589
:104C200080913815909139150E94FBD86E5F7F4FA7
:104C300024976C177D07ACF47093E5076093E40745
:104C40000E9414B3605A75418F4F9F4F6093E607DF
:104C50007093E7078093E8079093E907DF91CF917E
:104C600008951092E6071092E7071092E807109255
:104C7000E907F4CF10920D088091520290915302EF
:104C80000F971816190614F490E080E090935D15C4
:104C900080935C150E9442B310925E152C9810927E
:104CA0003B1510923A150E94042610923C158091F3
:104CB000020180728093000108958F929F92AF92BB
:104CC000BF92CF92DF92EF92FF920F931F93CF93F9
:104CD000DF93B0E4A0E06A2F70E0AB014B0F511DF1
:104CE00055954795411119C0EBE1FDE1659174912E
:104CF000072E000C880B990B0E9462D3DF91CF9195
:104D00001F910F91FF90EF90DF90CF90BF90AF90E9
:104D10009F908F900895B42FE0CFA41711F0B41393
:104D200003C0E7E1FEE1E2CF9A0121503109220FF1
:104D3000331F220F331FF901E75EF24EE590F49026
:104D4000F901E35EF24EC591D4918E159F051CF3D7
:104D5000A42FC817D9070CF4BECFF901E55EF24EB7
:104D600005911491F901E15EF24EC590D490BC0119
:104D70006E197F09072E000C880B990B0E9462D3D5
:104D80004B015C01B601601B710B072E000C880BF8
:104D9000990B0E9462D39B01AC01C501B4010E9432
:104DA000C1D34B015C01BE016E197F09072E000CB7
:104DB000880B990B0E9462D39B01AC01C501B40121
:104DC0000E9489D86B017C01B801110F880B990BE7
:104DD0000E9462D39B01AC01C701B6010E9406D8B4
:104DE0008DCFCF93DF93C4E5D5E18A819B810E946B
:104DF0005E9A6C837D838E839F83C2E3D5E18A8133
:104E00009B810E945D266C837D838E839F83A89502
:104E10001092F707DF91CF910895BC0120918C0784
:104E200030918D0740918C0750918D0724173507DD
:104E300031F481E02617370709F080E008959A01E0
:104E4000F1CF0F930FB70F9300916E000F930B7F6D
:104E500000936E0000916F000D7F00936F000F9321
:104E60000BB70F930CB70F921F922F933F934F9353
:104E70005F936F937F938F939F93AF93BF93EF93C2
:104E8000FF9311240E949C2AFF91EF91BF91AF9153
:104E90009F918F917F916F915F914F913F912F9152
:104EA0001F900F900CBF0F910BBF0F910260F894F1
:104EB00000936F000F9100936E000F910FBF0F9141
:104EC00018950000000000008091990880FF20C024
:104ED000899A8FEF8093FA0780919908869580FFD1
:104EE0001AC08F988FEF8093FB0780919908869561
:104EF000869580FF13C080910B0182708093090119
:104F000043988FEF8093FC07000000000000089595
:104F1000899881E0DFCF8F9A81E0E5CF80910B0106
:104F20008095827080930901439A81E0EBCF2091B4
:104F30005202309153022F503109821793070CF41B
:104F40009C0130935D1520935C150C9442B30F9334
:104F50001F93CF93DF9300D01F92CDB7DEB7209180
:104F600053142223E1F08C0108960E94F91B6983F7
:104F70007A838B839C83BE016F5F7F4FC8010E9441
:104F80007E1A9B01AC01F80160857185828593854D
:104F90000E9406D8F80160877187828793870F90F7
:104FA0000F900F900F90DF91CF911F910F91089567
:104FB0004F925F926F927F928F929F92AF92BF9229
:104FC000CF92DF92EF92FF920F931F93CF93DF93D5
:104FD000CDB7DEB768970FB6F894DEBF0FBECDBF72
:104FE0008C015B015A834983FC01EF5BFF4F6081B9
:104FF0007181828193810E9460D36B017C01D50114
:105000002D913D914D915C910E94C1D30E9472D827
:105010002B013C01E981FA81208131814281538158
:10502000C701B6010E94C1D30E9472D84B015C0136
:10503000C301B2010E9402D9698B7A8B8B8B9C8B46
:10504000683771058105910540F428E730E040E0BC
:1050500050E0298B3A8B4B8B5C8BC501B4010E94CD
:1050600002D96D877E878F87988B68377105810598
:10507000910540F488E790E0A0E0B0E08D879E873E
:10508000AF87B88BF801E35BFF4F2081318142810C
:10509000538129833A834B835C83CA01B9010E94FF
:1050A00062D32B013C0169897A898B899C890E9492
:1050B00060D369877A878B879C8720E030E0A901DD
:1050C000C301B2010E945BD3882309F43BC1A7014D
:1050D0009601C701B6010E94C1D34B015C0129852D
:1050E0003A854B855C85CA01B9010E94C1D39B01F9
:1050F000AC01C501B4010E9405D84B015C01A301BC
:105100009201C301B2010E9406D89B01AC01C50106
:10511000B4010E9489D80E9472D80E9402D96D837E
:105120007E838F83988769817A818B819C8190951A
:105130008095709561957F4F8F4F9F4F0E9462D3EE
:105140004B015C016D857E858F8598890E9460D3B7
:1051500069837A838B839C8320E030E0A901C501B9
:10516000B4010E945BD3882309F4F0C029813A81FD
:105170004B815C81CA01B9010E94C1D36D8B7E8BCA
:105180008F8B988FA7019601C701B6010E94C1D3EA
:105190009B01AC016D897E898F89988D0E9405D80D
:1051A0006B017C01A5019401C501B4010E9406D8E0
:1051B0009B01AC01C701B6010E9489D80E9431D978
:1051C000D80195968D909D90AD90BC909897750163
:1051D00064012D813E814F815885C21AD30AE40AA9
:1051E000F50A0E9402D9C61AD70AE80AF90AF7FE98
:1051F0006EC020E030E0A901C301B2010E945BD380
:10520000882309F4A7C0C501B4010E9460D36B01D3
:105210007C01A3019201C301B2010E9406D89B0147
:10522000AC01C701B6010E94C1D36B017C01298585
:105230003A854B855C85CA01B9010E94C1D39B01A7
:10524000AC01C701B6010E9405D86B017C01298120
:105250003A814B815C81CA01B9010E94C1D39B0193
:10526000AC01C701B6010E9406D86B017C0120E0A9
:1052700030E040E850E4C301B2010E94C1D39B0179
:10528000AC01C701B6010E9489D80E9472D86B0197
:105290007C0120E030E0A9010E9489D918161CF099
:1052A000C12CD12C7601C701B6010E9402D96D83B1
:1052B0007E838F83988786169706A806B90620F402
:1052C0008D829E82AF82B886C12CD12C76018D81D1
:1052D0009E81AF81B885F80181A792A7A3A7B4A743
:1052E000C80ED91EEA1EFB1EC5A6D6A6E7A6F0AAC2
:1052F000EB5BFF4F29893A894B895C892083318395
:105300004283538334968D859E85AF85B88980838B
:105310009183A283B38368960FB6F894DEBF0FBE65
:10532000CDBFDF91CF911F910F91FF90EF90DF9054
:10533000CF90BF90AF909F908F907F906F905F9035
:105340004F90089560E070E0CB01E5CE60E070E042
:10535000CB0134CF60E070E0CB0197CFEFE6F0E017
:105360008081826080830895CF93C82F0E94EC1BB8
:1053700094E0C99F90011124F901E157F84F255697
:10538000384FD9014D915D916D917C91408351834E
:105390006283738391E090938E07882319F0CF91F5
:1053A0000C94AE29CF910895CF92DF92EF92FF92A5
:1053B00080918006909181066599A2C0816090934A
:1053C000810680938006209109018091800690914A
:1053D000810627FD97C082609093810680938006A6
:1053E00080918006909181064B998EC08460909345
:1053F000810680938006209109018091800690911A
:10540000810626FD83C09860909381068093800674
:10541000809180069091810620917E0630917F06D2
:105420002817390709F474C022E020937D06909371
:105430007F0680937E0680919808882309F477C0C0
:10544000C0907F07C0FE10C08091990880FF0CC0FB
:105450008091FE0780FF08C08091AA0E8160809332
:10546000AA0E80E00E94B429D12CF12CE12CD701A6
:10547000C601B695A7959795879580FF11C0809135
:105480009908869580FF0CC08091FE0781FF08C0B7
:105490008091AA0E82608093AA0E81E00E94B429B6
:1054A00052E0F694E794D794C7945A95D1F7C0FE8A
:1054B0003EC0809199088695869580FF38C02091DE
:1054C000FE073091FF07C9019695879596958795B8
:1054D000817092E033FF90E0892B49F19091AA0E00
:1054E00094609093AA0E90910008992311F0833054
:1054F000F1F482E0FF90EF90DF90CF900C94B4290C
:105500008E7F5DCF8D7F68CF8B7F71CF977F7CCF74
:1055100080917D06882309F48ECF815080937D068B
:10552000811189CF3093FF072093FE0784CFFF902E
:10553000EF90DF90CF9008952F923F924F925F921D
:105540006F927F928F929F92AF92BF92CF92DF9293
:10555000EF92FF920F931F93CF93DF9300D000D071
:105560001F92CDB7DEB78FEF9FEF909389008093A6
:1055700088002AE02983312C212C78948091880797
:1055800090918907A0918A07B0918B07892B8A2B6C
:105590008B2B09F00FC280918E078823E1F0809158
:1055A0008C0790918D0710928E07892B09F402C207
:1055B00010928D0710928C0710927F079091AD1773
:1055C0008091AE17981709F4F5C18091AE178F5FDF
:1055D0008F708093AE1780918C0790918D07892BE7
:1055E00009F4E8C1409184075091850760918607CE
:1055F000709187078091800790918107A091820721
:10560000B09183070091720710E030E020E0841B26
:10561000950BA60BB70B081719072A073B0710F4C1
:10562000D901C801E82F840F951FA61FB71F8093CB
:10563000840790938507A0938607B093870731E08E
:105640003F83009148071091490720914A07309104
:105650004B078091580790915907A0915A07B09134
:105660005B07080F191F2A1F3B1F00935807109351
:10567000590720935A0730935B0737FD33C0809159
:10568000FA07082E000C990BAA0BBB0B40919B0745
:1056900050919C0760919D0770919E07840F951F04
:1056A000A61FB71F80939B0790939C07A0939D070D
:1056B000B0939E078091440790914507A0914607BB
:1056C000B0914707B901A801481B590B6A0B7B0B26
:1056D000DB01CA018093580790935907A0935A079A
:1056E000B0935B0740914C0750914D0760914E0776
:1056F00070914F0780915C0790915D07A0915E07C4
:10570000B0915F07480F591F6A1F7B1F40935C07CA
:1057100050935D0760935E0770935F0777FD33C01A
:10572000C090FB070C2C000CDD08EE08FF088091F0
:105730009F079091A007A091A107B091A2078C0D9F
:105740009D1DAE1DBF1D80939F079093A007A09342
:10575000A107B093A2078091440790914507A091BB
:105760004607B09147074A015B01881A990AAA0ABD
:10577000BB0AD501C40180935C0790935D07A09399
:105780005E07B0935F07C0905007D0905107E0903C
:105790005207F09053078091600790916107A091A4
:1057A0006207B09163078C0D9D1DAE1DBF1D8093D8
:1057B000600790936107A0936207B0936307B7FDFA
:1057C00033C0C090FC070C2C000CDD08EE08FF086D
:1057D0008090A3079090A407A090A507B090A6077B
:1057E000C80CD91CEA1CFB1CC092A307D092A407CA
:1057F000E092A507F092A607C0904407D090450715
:10580000E0904607F09047074C015D018C189D0819
:10581000AE08BF0875016401C0926007D0926107AD
:10582000E0926207F09263078090640790906507AA
:10583000A0906607B0906707C0905407D0905507B6
:10584000E0905607F0905707C80CD91CEA1CFB1CC7
:10585000C0926407D0926507E0926607F0926707EE
:10586000F7FC38C04090FD07042C000C5508660872
:1058700077088090A7079090A807A090A907B090FC
:10588000AA07840C951CA61CB71C8092A7079092AF
:10589000A807A092A907B092AA0780904407909009
:1058A0004507A0904607B0904707C818D908EA08EE
:1058B000FB08C0926407D0926507E0926607F092F9
:1058C0006707E0907007F0919908F3FFEDC0EA9444
:1058D000E09270079F80911004C0A0908400B09067
:1058E000850037FF889A77FF8E9AB7FD26C0F09122
:1058F0000008FF2309F4DAC0F091FE07F2FF04C0AC
:10590000F091FC07F7FD0AC0F091F907F11106C00C
:10591000F0910B01F095F870F0930901C090FE072B
:10592000D090FF07D3FE04C0F091FC07F7FD05C03F
:10593000F091F807F11101C0419AE0908400F090D5
:105940008500809084009090850037FF889877FFCD
:105950008E98B7FD25C080910008882309F4ADC05A
:105960008091FE0782FF04C08091FC0787FD09C07B
:105970008091F907811105C080910B018870809397
:1059800009018091FE079091FF0793FF04C0809169
:10599000FC0787FD05C08091F807811101C041987F
:1059A000EE2321F08091840090918500E1501F82C8
:1059B000E11147CE8091400290914102A0914202B4
:1059C000B0914302892B8A2B8B2B09F0B1C08091B7
:1059D0007107882309F499C080917007809084072B
:1059E00090908507A0908607B0908707C0906C07BD
:1059F000D0906D07E0906E07F0906F07C814D9043F
:105A0000EA04FB0408F05FC020913E0730913F0795
:105A100040914207509143074217530708F053C083
:105A20008150809370072150310930933F072093B4
:105A30003E0740913C0250913D0260913E027091C0
:105A40003F020000000000008091700718160CF063
:105A500060C0169A00000000000081E0909170077D
:105A6000992309F45DC0811104C080918400909154
:105A70008500149A80918400909185008091700730
:105A800087FF4CC08F5F8093700780918400909156
:105A90008500149880917007882321F080918400FC
:105AA0009091850080E0DACFE39412CFF0910B0162
:105AB000F095F870F09309013FCF80910B01887049
:105AC000809309016CCF8C149D04AE04BF0488F44C
:105AD00020913E0730913F07409140075091410788
